{
  "abi": [
    {
      "type": "constructor",
      "inputs": [],
      "stateMutability": "nonpayable"
    },
    {
      "type": "function",
      "name": "createOrder",
      "inputs": [
        {
          "name": "_packageName",
          "type": "string",
          "internalType": "string"
        },
        {
          "name": "_price",
          "type": "uint256",
          "internalType": "uint256"
        },
        {
          "name": "_distance",
          "type": "uint256",
          "internalType": "uint256"
        }
      ],
      "outputs": [],
      "stateMutability": "nonpayable"
    },
    {
      "type": "function",
      "name": "deliverOrder",
      "inputs": [
        {
          "name": "_orderId",
          "type": "uint256",
          "internalType": "uint256"
        }
      ],
      "outputs": [],
      "stateMutability": "nonpayable"
    },
    {
      "type": "function",
      "name": "getCourierOrders",
      "inputs": [
        {
          "name": "courier",
          "type": "address",
          "internalType": "address"
        }
      ],
      "outputs": [
        {
          "name": "",
          "type": "uint256[]",
          "internalType": "uint256[]"
        }
      ],
      "stateMutability": "view"
    },
    {
      "type": "function",
      "name": "getCustomerOrders",
      "inputs": [
        {
          "name": "customer",
          "type": "address",
          "internalType": "address"
        }
      ],
      "outputs": [
        {
          "name": "",
          "type": "uint256[]",
          "internalType": "uint256[]"
        }
      ],
      "stateMutability": "view"
    },
    {
      "type": "function",
      "name": "getOrder",
      "inputs": [
        {
          "name": "orderId",
          "type": "uint256",
          "internalType": "uint256"
        }
      ],
      "outputs": [
        {
          "name": "",
          "type": "tuple",
          "internalType": "struct ChainDelivery.Order",
          "components": [
            {
              "name": "id",
              "type": "uint256",
              "internalType": "uint256"
            },
            {
              "name": "packageName",
              "type": "string",
              "internalType": "string"
            },
            {
              "name": "customer",
              "type": "address",
              "internalType": "address"
            },
            {
              "name": "courier",
              "type": "address",
              "internalType": "address"
            },
            {
              "name": "distance",
              "type": "uint256",
              "internalType": "uint256"
            },
            {
              "name": "status",
              "type": "uint8",
              "internalType": "enum ChainDelivery.Status"
            },
            {
              "name": "price",
              "type": "uint256",
              "internalType": "uint256"
            }
          ]
        }
      ],
      "stateMutability": "view"
    },
    {
      "type": "function",
      "name": "getOwner",
      "inputs": [],
      "outputs": [
        {
          "name": "",
          "type": "address",
          "internalType": "address"
        }
      ],
      "stateMutability": "view"
    },
    {
      "type": "function",
      "name": "getUserOrders",
      "inputs": [],
      "outputs": [
        {
          "name": "",
          "type": "uint256[]",
          "internalType": "uint256[]"
        }
      ],
      "stateMutability": "view"
    },
    {
      "type": "function",
      "name": "pickUpOrder",
      "inputs": [
        {
          "name": "_orderId",
          "type": "uint256",
          "internalType": "uint256"
        }
      ],
      "outputs": [],
      "stateMutability": "nonpayable"
    },
    {
      "type": "function",
      "name": "s_orderCount",
      "inputs": [],
      "outputs": [
        {
          "name": "",
          "type": "uint256",
          "internalType": "uint256"
        }
      ],
      "stateMutability": "view"
    },
    {
      "type": "event",
      "name": "Created",
      "inputs": [
        {
          "name": "orderId",
          "type": "uint256",
          "indexed": false,
          "internalType": "uint256"
        },
        {
          "name": "packageName",
          "type": "string",
          "indexed": false,
          "internalType": "string"
        },
        {
          "name": "customer",
          "type": "address",
          "indexed": false,
          "internalType": "address"
        },
        {
          "name": "price",
          "type": "uint256",
          "indexed": false,
          "internalType": "uint256"
        }
      ],
      "anonymous": false
    },
    {
      "type": "event",
      "name": "Delivered",
      "inputs": [
        {
          "name": "orderId",
          "type": "uint256",
          "indexed": false,
          "internalType": "uint256"
        }
      ],
      "anonymous": false
    },
    {
      "type": "event",
      "name": "PickedUp",
      "inputs": [
        {
          "name": "orderId",
          "type": "uint256",
          "indexed": false,
          "internalType": "uint256"
        },
        {
          "name": "courier",
          "type": "address",
          "indexed": false,
          "internalType": "address"
        }
      ],
      "anonymous": false
    },
    {
      "type": "error",
      "name": "ChainDelivery__OrderNotPending",
      "inputs": []
    }
  ],
  "bytecode": {
    "object": "0x6080604052600060045534801561001557600080fd5b50600080546001600160a01b03191633179055610b33806100376000396000f3fe608060405234801561001057600080fd5b50600436106100935760003560e01c8063a9961e4411610066578063a9961e44146100f7578063b8fc59ba1461010c578063d09ef2411461011f578063d16e51621461013f578063ddff5e7d1461015657600080fd5b80631e4b919b1461009857806322f974d2146100b6578063893d20e8146100c9578063a4c51bb5146100e4575b600080fd5b6100a0610169565b6040516100ad9190610700565b60405180910390f35b6100a06100c4366004610744565b6101ca565b6000546040516001600160a01b0390911681526020016100ad565b6100a06100f2366004610744565b610236565b61010a610105366004610774565b6102a0565b005b61010a61011a3660046107a3565b61036e565b61013261012d366004610774565b6104ef565b6040516100ad91906108c3565b61014860045481565b6040519081526020016100ad565b61010a610164366004610774565b610618565b336000908152600260209081526040918290208054835181840281018401909452808452606093928301828280156101c057602002820191906000526020600020905b8154815260200190600101908083116101ac575b5050505050905090565b6001600160a01b03811660009081526002602090815260409182902080548351818402810184019094528084526060939283018282801561022a57602002820191906000526020600020905b815481526020019060010190808311610216575b50505050509050919050565b6001600160a01b03811660009081526003602090815260409182902080548351818402810184019094528084526060939283018282801561022a57602002820191906000526020600020908154815260200190600101908083116102165750505050509050919050565b600081815260016020526040812090600582015460ff1660028111156102c8576102c86108ad565b146102e6576040516312c0a81160e01b815260040160405180910390fd5b600381810180546001600160a01b0319163390811790915560058301805460ff19166001908117909155600082815260209384526040808220805493840181558252908490209091018590558051858152928301919091527f1e3ad6e325f0eb01d87a8a82c1219a289531b5b3d7b722e4af219de4c5180ebb91015b60405180910390a15050565b60006001600460008282546103839190610956565b92505081905590506040518060e00160405280828152602001858152602001336001600160a01b0316815260200160006001600160a01b03168152602001838152602001600060028111156103da576103da6108ad565b815260209081018590526000838152600180835260409091208351815591830151908201906104099082610a08565b506040820151600280830180546001600160a01b039384166001600160a01b0319918216179091556060850151600385018054919094169116179091556080830151600483015560a08301516005830180549192909160ff1916906001908490811115610478576104786108ad565b021790555060c0919091015160069091015533600081815260026020908152604080832080546001810182559084529190922001839055517fdeff0417745b7acb8298d61d6ce09c4ff14eb3c128ffb117b2eb8f1c10104cec916104e191849188918890610ac8565b60405180910390a150505050565b6104f76106a0565b600082815260016020818152604092839020835160e08101909452805484529182018054918401916105289061097d565b80601f01602080910402602001604051908101604052809291908181526020018280546105549061097d565b80156105a15780601f10610576576101008083540402835291602001916105a1565b820191906000526020600020905b81548152906001019060200180831161058457829003601f168201915b50505091835250506002828101546001600160a01b039081166020840152600384015416604083015260048301546060830152600583015460809092019160ff16908111156105f2576105f26108ad565b6002811115610603576106036108ad565b81526020016006820154815250509050919050565b600081815260016020819052604090912090600582015460ff166002811115610643576106436108ad565b14610661576040516312c0a81160e01b815260040160405180910390fd5b60058101805460ff191660021790556040518281527ffcc296b8bdd64e3f1d1faadef50cb2d6550f645316330fe57cb1dd7e0612ead090602001610362565b6040518060e00160405280600081526020016060815260200160006001600160a01b0316815260200160006001600160a01b0316815260200160008152602001600060028111156106f3576106f36108ad565b8152602001600081525090565b6020808252825182820181905260009190848201906040850190845b818110156107385783518352928401929184019160010161071c565b50909695505050505050565b60006020828403121561075657600080fd5b81356001600160a01b038116811461076d57600080fd5b9392505050565b60006020828403121561078657600080fd5b5035919050565b634e487b7160e01b600052604160045260246000fd5b6000806000606084860312156107b857600080fd5b833567ffffffffffffffff808211156107d057600080fd5b818601915086601f8301126107e457600080fd5b8135818111156107f6576107f661078d565b604051601f8201601f19908116603f0116810190838211818310171561081e5761081e61078d565b8160405282815289602084870101111561083757600080fd5b82602086016020830137600060208483010152809750505050505060208401359150604084013590509250925092565b6000815180845260005b8181101561088d57602081850181015186830182015201610871565b506000602082860101526020601f19601f83011685010191505092915050565b634e487b7160e01b600052602160045260246000fd5b60208152815160208201526000602083015160e060408401526108ea610100840182610867565b9050604084015160018060a01b0380821660608601528060608701511660808601525050608084015160a084015260a08401516003811061093b57634e487b7160e01b600052602160045260246000fd5b8060c08501525060c084015160e08401528091505092915050565b8082018082111561097757634e487b7160e01b600052601160045260246000fd5b92915050565b600181811c9082168061099157607f821691505b6020821081036109b157634e487b7160e01b600052602260045260246000fd5b50919050565b601f821115610a03576000816000526020600020601f850160051c810160208610156109e05750805b601f850160051c820191505b818110156109ff578281556001016109ec565b5050505b505050565b815167ffffffffffffffff811115610a2257610a2261078d565b610a3681610a30845461097d565b846109b7565b602080601f831160018114610a6b5760008415610a535750858301515b600019600386901b1c1916600185901b1785556109ff565b600085815260208120601f198616915b82811015610a9a57888601518255948401946001909101908401610a7b565b5085821015610ab85787850151600019600388901b60f8161c191681555b5050505050600190811b01905550565b848152608060208201526000610ae16080830186610867565b6001600160a01b0394909416604083015250606001529291505056fea26469706673582212202b29a4d639d6ef44538d44d3b3591c1a13ae9f80c88f00fb05bfd739ddc9d23564736f6c63430008170033",
    "linkReferences": {}
  },
  "methodIdentifiers": {
    "createOrder(string,uint256,uint256)": "b8fc59ba",
    "deliverOrder(uint256)": "ddff5e7d",
    "getCourierOrders(address)": "a4c51bb5",
    "getCustomerOrders(address)": "22f974d2",
    "getOrder(uint256)": "d09ef241",
    "getOwner()": "893d20e8",
    "getUserOrders()": "1e4b919b",
    "pickUpOrder(uint256)": "a9961e44",
    "s_orderCount()": "d16e5162"
  },
  "id": 20
}